:020000040800F2
:1000000008060020C9000008B5040008D90100084E
:1000100000000000000000000000000000000000E0
:10002000000000000000000000000000BD05000806
:10003000000000000000000025050008D9050008A8
:10004000DB00000800000000DB000008DB00000807
:10005000DB000008DB000008DB000008DB00000814
:1000600000000000DB000008DB000008DB000008E7
:10007000DB000008DB000008DB00000800000000D7
:10008000DD0600080000000000000000DB000008A2
:1000900000000000DB000008DB000008DB000008B7
:1000A00000000000DB000008000000000507000859
:1000B0000448854600F03EF800480047930D0008CC
:1000C000C046C04608060020044880470448004750
:1000D000FEE7FEE7FEE7FEE7FEE7FEE7590600085B
:1000E000B100000830B50B46014600202022012453
:1000F00009E00D46D5409D4205D31D469540491B5C
:100100002546954040191546521E002DF1DC30BDA4
:10011000D2B201E00270401C491EFBD2704700229F
:10012000F6E710B513460A4604461946FFF7F0FFF6
:10013000204610BD064C0125064E05E0E36807CCBD
:100140002B430C3C98471034B442F7D3FFF7B4FF6D
:10015000B40D0008D40D000810B500F095FB00F0B8
:1001600051FD00F03BF810BD10B50A4C2078002876
:100170000CD000F0BFFD00F057FD00F07CFB2078B4
:10018000401E207000F07BFB00F0BCFC00F00CFD7A
:1001900010BD00001000002070B504464068002526
:1001A000002802D05F2811D107E00021012000F0D3
:1001B000E3FB5F20A560606070BDA0681E28FBDBCC
:1001C0000021084600F0D8FB02480570204600F0E8
:1001D000E7FC70BD00000020FEE7000010B51849E4
:1001E000002000F0C9FCFF21164AF531002000F084
:1001F0006BFD13490120143100F0BEFC7D21124A31
:10020000C900012000F060FD0D49104A283101208D
:1002100000F089FC0A490E4A3C31012000F083FCC1
:1002200007490020503100F095FC002305220949C0
:10023000184600F031FD0849002000F025FD10BDF2
:10024000A4000020F506000803070008B904000810
:10025000990100085D020008C105000810B50849B1
:100260007D2212010978904203D9002907D0054860
:1002700003E0002903D10348143800F04BFC10BD03
:1002800000000020E000002008B504494A6902434C
:100290004A6149690140009108BD00000010024018
:1002A000F0B500244DE00123A3401A4048D04B682C
:1002B000012B01D0022B10D18E6885681346534361
:1002C0005F00DF19BD4373431D438560CD680B6834
:1002D00046689E436B431E4346600F69C6681346DB
:1002E00053435D005D19AE435F433E43C6604E68B5
:1002F000022E1FD1FF2A0ED817464A69066A944675
:100300001A467A437A431701BF1ABE4367467A43B7
:10031000164306620EE0160A324672434F69724374
:100320007243BC461601B71A466ABE4367467A4313
:10033000164346624A6806685343AE431E4306604E
:10034000641C0A681346E340ADD10020F0BD0000F4
:10035000014610B5002000290FD110490A6B920701
:10036000920F012A0AD0022A11D0032A09D000F0E4
:10037000F5F800F0D9F800F0E5F810BD00F0EEF85F
:1003800010BD09688907C90FFAD0054810BD096A70
:100390008907C90FFAD00120C00310BD0010024028
:1003A00000127A0070B50268174B184D984201D0C0
:1003B000A84203D17024A2434C682243144E154C2A
:1003C000984208D0A84206D0134DA84203D0B042AC
:1003D00001D0A04204D103252D02AA43CD682A43AF
:1003E00002608A68C2620A888262984203D0B04280
:1003F00001D0A04201D10969016341690122114381
:100400004161002070BD0000002C0140000400404C
:1004100000440140004801400020004070B50446FF
:1004200000680D46012630403CD1E9686868AA6939
:10043000084329691143084321681B4A11400843B6
:100440002060A86861680322120391430143616040
:100450006969A068121190430843A0601348844260
:1004600020D10020FFF774FF00281BD02968002945
:1004700018D00123AA690026DB039A420CD1400060
:100480004A088018FFF72EFE81B209480840090784
:10049000490F0143E16005E04A081018FFF722FE0A
:1004A00080B2E060304670BDF369FFFF0038014064
:1004B000F0FF0000FEE7000070B50446406800252C
:1004C000002804D049280CD0512822D117E0134924
:1004D000AA2008700121114800F0ECFA4920A5601B
:1004E0006060A06800F072F9002807D011DB0121DC
:1004F000002000F041FA5120A560606070BDA06846
:100500000528FBDB0121084600F036FA04490120EA
:100510000870204600F044FB70BD0000240000205D
:10052000000000207047000004494968F022114093
:10053000034A0909515CC84070470000001002409E
:100540009C0D000803494968034A4905490F515C5D
:10055000C840704700100240AC0D000810B50648B6
:1005600041680C200140054805D0042903D0082922
:1005700001D100F005F810BD0010024000127A0011
:1005800010B50C4C6168012212040B48114002D0D6
:10059000914200D14000E16A0907090F491CFFF7A9
:1005A000A1FD61680F2292041140890C891C484307
:1005B00010BD00000010024000093D00704700001F
:1005C00010B5034800F05EFA0249487010BD000003
:1005D000240000200000002010B503484168491C99
:1005E000416000F007FB10BD0400002070B5154EFF
:1005F00071680C2001401448144C03D0042901D028
:10060000082901D0206014E07168726801231B047E
:100610001A4089020D0FF16AAD1C0907090F491C28
:100620009A4203D1FFF75EFD6843EBE70848454374
:100630002560706807490006000F085C2168C1400A
:10064000216070BD0010024000127A000C000020F2
:1006500000093D009C0D00087047000010B586B0F1
:1006600014216846FFF75BFD18480221C2690A435E
:10067000C261C069084005900021102000F0CAF84E
:10068000102000F0BBF82F20694608800021104898
:10069000104C01910391029069462046FFF782FEBB
:1006A0002168802081432160A1680B4A1140A1602C
:1006B0006168702291436160A1688143A160E06834
:1006C00001210843E06006B010BD000000100240A8
:1006D0008813000000040040F8BFFFFF10B50120A0
:1006E0000349C0430861002000F0FCFA10BD00007F
:1006F000000400400920C006416940225140416188
:100700007047704710B52748C1698BB226499A06D1
:100710000FD5244820308088C2B24878802805D27E
:100720004878224B1B18401C48701A7000F040F8A3
:1007300010BD5C064022002C0FDAEFF3108101237C
:1007400083F3108803689343036081F31088026287
:1007500010200921C906886210BD1B06FCD50B7844
:100760008C78A34208D20A78104B80339B18521C15
:100770000A701978018510BDEFF31081012383F30E
:10078000108803688024A343036081F31088EFF38B
:100790001081012383F3108803681343036081F3FE
:1007A000108810BD00380140040000200401002022
:1007B000054801684908490001600021416201685B
:1007C00001221143016070470004004009494A7842
:1007D000002A05D000224A7007490978552904D01B
:1007E000642804DD0020C0437047012070470020CA
:1007F000704700000000002024000020002805DBD6
:10080000C106C90E012088400149086070470000F8
:1008100000E100E08307FF22DB0E9A408907090E02
:100820009940002808DB830809489B001B181868BA
:1008300090430843186070470007000F083883088A
:1008400004489B001B18D86990430843D86170473F
:1008500000E400E000ED00E002E008C8121F08C15B
:10086000002AFAD170477047002001E001C1121F31
:10087000002AFBD17047012080F3108870470020C8
:1008800080F310887047000070B586B01821684664
:10089000FFF745FC01208005FFF7F6FC012040042E
:1008A000FFF7F2FC10200926F606B0622020B062A5
:1008B0004020B0620024302001250090029403946F
:1008C0006946019504943046FFF7EAFC4020009009
:1008D000029403946946019504943046FFF7E0FCC6
:1008E00000956946304604950194FFF7D9FC00F065
:1008F00031FA00F057F8FFF779FE11487D21C90061
:100900000068FFF7EFFB0F49401E884208D80E4DE4
:1009100068610321081FFFF77DFFAC610720286194
:100920000B480A49016003214160FA218160C168D6
:100930004907FCD1074901600749016006B070BD55
:100940000C000020FFFFFF0000E000E05555000014
:1009500000300040AAAA0000CCCC000001460020D4
:10096000002906D101200921C9060969884301D05F
:1009700000207047012070470922D206002908D0C4
:10098000002804D0012801D1402090617047202028
:10099000FBE7002804D00128F8D14020906270477E
:1009A0002020FBE7F0B58FB01C2106A8FFF7B7FBAE
:1009B00018216846FFF7B3FB2F480121826989039C
:1009C0000A4382618069002408400D9001260420BA
:1009D0000225032703946A4605960494A1C20920C0
:1009E0006946C006FFF75CFC082003946A4605963A
:1009F0000494A1C209206946C006FFF751FC0021FA
:100A00001B20FFF707FF1B20FFF7F8FE4B20C0015C
:100A100006900C20194D07940A90089409940B94A1
:100A200006A90C942846FFF7F9FCEFF3108086F333
:100A30001088A9682A159143A96080F31088686816
:100A4000510088436860A96808208143A96028682C
:100A500030432860EFF3108086F310882968202245
:100A60001143296080F31088FFF7F8FD04480470F3
:100A7000847044700FB0F0BD001002400038014097
:100A80000400002010B5024600200849084B03E08E
:100A90001C5C1454401CC0B24C78A042F8D3002215
:100AA0004A704B78002BFBD110BD000004000020E1
:100AB0000401002010B5034601220F4803E09C5CAE
:100AC0008454521CD2B28A42F9D30C48012481705A
:100AD000047010200922D206906109481A78028514
:100AE000EFF3108284F310880368802423430360AB
:100AF00082F31088084610BD840100200400002005
:100B0000003801400249014808607047AAAA000065
:100B1000003000400178002904D10121017000213A
:100B200041608160704770B515460C4600F052F880
:100B3000002807D000212170E5602161C268002AE9
:100B400002D1C46070BD024610690028FBD1146157
:100B500070BD0000087000208860064AC860906878
:100B6000002802D1916070471046C268002AFBD16C
:100B7000C16070471000002000224A8008700A619E
:100B8000CA60064A5068002802D15160704710467A
:100B90000269002AFBD101617047000010000020AB
:100BA0000021017070470000F8B50024084E274668
:100BB000E00085196878002804D06868002800D013
:100BC00080476F70641C2406240EF1D0F8BD00002D
:100BD0001C00002001460648406805E002785206E5
:100BE000520E8A4202D000690028F7D170470000F7
:100BF0001000002002480178491C01707047000075
:100C00001000002000210748064A41608160084624
:100C10000C32C3009B18401C597000065960000E2E
:100C2000F7D070471000002010B51548846823E005
:100C30002078FFF793FEA178814219D1E17900294C
:100C400005D0491E0906090EE17106D013E0A088FF
:100C50000C4988420FD2401C08E06178022901D07B
:100C6000814202D1A168A0888847A079A08002E0D3
:100C7000A070A079E071E468002CD9D110BD00000B
:100C800010000020FFFF0000002801D10148416052
:100C9000704700001C00002070B50A4CA46803E0F7
:100CA0002578854203D0E468002CF9D170BD002C72
:100CB000FCD0A2716370A1600021E171FFF74EFECC
:100CC000A07070BD1000002070B514460D46FFF7EF
:100CD00081FF002804D04580002184608180C160AC
:100CE00070BD0000002802D1014801214170704709
:100CF0001C00002070B5164844680AE02078000601
:100D000006D4A088401C80B2A0806188884203D2AB
:100D10002469002CF2D170BD0020E5680CE0297830
:100D2000002908D0A868401CA860E968002901D003
:100D30002846884701202D69002DF0D1002803D1D5
:100D4000A068002800D080470020A080E0E70000D5
:100D50001000002030B587B018216846FFF7DFF992
:100D6000012040020924E406A0624500A56200902B
:100D700001200021019002910491039069462046D0
:100D8000FFF78EFA694620460095FFF789FA07B00B
:100D900030BDFFF7E1F9FFF7E7F9FCE700000000DD
:100DA000000000000102030406070809000000001B
:100DB00001020304D40D00080000002024000000FC
:100DC00058080008F80D000824000020E405000081
:100DD000680800080000000000000000000000009B
:100DE00000127A0000000000000000000000000077
:080DF0000000000000000000FB
:04000005080000B13E
:00000001FF
